:080CDC00060835343332310003
:100BC000E4F590F5A075B0FFF580D280D282D28492
:100BD000120CC5120CB0E4F514F515120CD18F0EE1
:100BE000740F2515F8A60E7F647E00120C610515A2
:100BF000E51570020514C39405E5146480948040E3
:100C0000DA78087C007D007B007A00790F12097E7B
:100C1000EF7005120C2A80A8C280C2847FA07E0FCC
:0A0C2000120C61D284120C5D809664
:100C2A00C280C2827FC87E00120C61D2A3C2A0C257
:100C3A00A2C2A17FC87E00120C61D2A2C2A3C2A125
:100C4A00C2A07F887E13120C61120C877FC87E00B7
:030C5A00020C6128
:100C8700C280D2827FC87E00120C61D2A3C2A2C2E8
:100C9700A1C2A07FC87E00120C61D2A0C2A3C2A2CB
:090CA700C2A17FC87E00020C61AD
:0C0CC500120C5DC2807F027E00020C61F8
:100CB000C296C295C294C293C292C291C2907F0260
:050CC0007E00020C6142
:0A0CD1007F61BF6105120A7780F809
:010CDB0022F6
:100A7700D2B2D2B1D2B0C2B6C2B5C2B4C2B3C2B397
:100A8700D2B6D2B5D2B420B00B7F3112099B120C6B
:100A97005D7F312220B10B7F3212099B120C5D7FE3
:100AA700322220B20B7F3312099B120C5D7F332257
:100AB700C2B4D2B6D2B5D2B320B00B7F3412099BE1
:100AC700120C5D7F342220B10B7F3512099B120C6B
:100AD7005D7F352220B20B7F3612099B120C5D7F9A
:100AE7003622C2B5D2B6D2B4D2B320B00B7F3712FA
:100AF700099B120C5D7F372220B10B7F3812099BAF
:100B0700120C5D7F382220B20B7F3912099B120C21
:100B17005D7F3922C2B6D2B5D2B4D2B320B10B7F32
:0D0B27003012099B120C5D7F30227F61228D
:10099B00EF24D0B40A004003020A6D9009B475F03D
:1009AB0003A4C58325F0C583730209D20209E302B0
:1009BB0009ED0209FD020A0D020A1D020A2D020AA7
:1009CB003D020A4D020A5DD295D294D293D292D2B5
:1009DB0091D290C296020A6DD292D291C296C295D2
:1009EB008028D296D294D293D291D290C295C292B1
:1009FB008070D296D293D292D291D290C295C29459
:100A0B008060D296D295D292D291C294C293C29068
:100A1B008050D296D292D293D295D290C294C29158
:100A2B008040D296D295D294D293D292D290C29148
:100A3B008030D292D291D290C296C295C294C29378
:100A4B008020D296D295D294D293D292D291D29038
:100A5B008010D296D295D294D293D292D291D29038
:0C0A6B00C2947F2C7E01120C61020CB0C2
:040C5D007F027E0094
:100C6100E4FDFCC3ED9FEE6480F8EC6480985015C0
:100C7100E4FBFA0BBB00010AEB64784A70F50DBD89
:050C810000010C80DE03
:010C8600224B
:03000000020B34BC
:0C0B3400787FE4F6D8FD758115020B7B7C
:10080000E3F5F009E208B5F06D606B80F3E3F5F015
:1008100009E608B5F060605E80F387F009E608B588
:10082000F054605280F487F009E208B5F048604661
:1008300080F488828C8387F009E0A3B5F0386036B5
:1008400080F488828C8387F009E493A3B5F0276055
:100850002580F388828C83E3F5F009E0A3B5F016D8
:10086000601480F388828C83E3F5F009E493A3B5E8
:10087000F004600280F202092B808580E7808E8080
:10088000D2803C8015806C807E809B80B5808B8080
:10089000A1804F8070803A02093789828A83ECFAFE
:1008A000E493F5F0A3C8C582C8CCC583CCE493A378
:1008B000C8C582C8CCC583CCB5F070606E80E189B4
:1008C000828A83E493F5F0A3E208B5F05E605C8071
:1008D000F289828A83E0F5F0A3E608B5F04D604B1B
:1008E00080F389828A83E0F5F0A3E208B5F03C60EA
:1008F0003A80F389828A83E493F5F0A3E608B5F0A1
:100900002A602880F2805389828A83ECFAE493F586
:10091000F0A3C8C582C8CCC583CCE0A3C8C582C833
:10092000CCC583CCB5F004600280E27FFFB5F00255
:100930000F2240027F012289828A83ECFAE0F5F0DF
:10094000A3C8C582C8CCC583CCE0A3C8C582C8CC27
:10095000C583CCB5F0D560D380E389828A83ECFA75
:10096000E0F5F0A3C8C582C8CCC583CCE493A3C886
:10097000C582C8CCC583CCB5F0B160AF80E288F049
:10098000ED2402B4040050A3F582EB2402B4040069
:0B0990005099232345822390087973BF
:100B4000020BC0E493A3F8E493A34003F68001F200
:100B500008DFF48029E493A3F85407240CC8C333B6
:100B6000C4540F4420C8834004F456800146F6DF85
:100B7000E4800B0102040810204080900CDCE47E2D
:100B8000019360BCA3FF543F30E509541FFEE4937A
:100B9000A360010ECF54C025E060A840B8E493A341
:100BA000FAE493A3F8E493A3C8C582C8CAC583CA6C
:100BB000F0A3C8C582C8CAC583CADFE9DEE780BE24
:010CE400000F
:00000001FF
